{
  "_format": "hh-sol-artifact-1",
  "contractName": "Consumer",
  "sourceName": "contracts/Consumer.sol",
  "abi": [
    {
      "inputs": [],
      "stateMutability": "nonpayable",
      "type": "constructor"
    },
    {
      "inputs": [
        {
          "internalType": "address",
          "name": "owner",
          "type": "address"
        }
      ],
      "name": "OwnableInvalidOwner",
      "type": "error"
    },
    {
      "inputs": [
        {
          "internalType": "address",
          "name": "account",
          "type": "address"
        }
      ],
      "name": "OwnableUnauthorizedAccount",
      "type": "error"
    },
    {
      "anonymous": false,
      "inputs": [
        {
          "indexed": true,
          "internalType": "address",
          "name": "previousOwner",
          "type": "address"
        },
        {
          "indexed": true,
          "internalType": "address",
          "name": "newOwner",
          "type": "address"
        }
      ],
      "name": "OwnershipTransferred",
      "type": "event"
    },
    {
      "anonymous": false,
      "inputs": [
        {
          "indexed": false,
          "internalType": "uint256",
          "name": "_ethPrice",
          "type": "uint256"
        }
      ],
      "name": "PriceUpdated",
      "type": "event"
    },
    {
      "inputs": [
        {
          "internalType": "uint256",
          "name": "_ethPrice",
          "type": "uint256"
        }
      ],
      "name": "_callback",
      "outputs": [],
      "stateMutability": "nonpayable",
      "type": "function"
    },
    {
      "inputs": [],
      "name": "ethPrice",
      "outputs": [
        {
          "internalType": "uint256",
          "name": "",
          "type": "uint256"
        }
      ],
      "stateMutability": "view",
      "type": "function"
    },
    {
      "inputs": [],
      "name": "getData",
      "outputs": [],
      "stateMutability": "nonpayable",
      "type": "function"
    },
    {
      "inputs": [],
      "name": "oracle",
      "outputs": [
        {
          "internalType": "contract OracleInterface",
          "name": "",
          "type": "address"
        }
      ],
      "stateMutability": "view",
      "type": "function"
    },
    {
      "inputs": [],
      "name": "owner",
      "outputs": [
        {
          "internalType": "address",
          "name": "",
          "type": "address"
        }
      ],
      "stateMutability": "view",
      "type": "function"
    },
    {
      "inputs": [],
      "name": "renounceOwnership",
      "outputs": [],
      "stateMutability": "nonpayable",
      "type": "function"
    },
    {
      "inputs": [
        {
          "internalType": "address",
          "name": "_oracle",
          "type": "address"
        }
      ],
      "name": "setOracle",
      "outputs": [],
      "stateMutability": "nonpayable",
      "type": "function"
    },
    {
      "inputs": [
        {
          "internalType": "address",
          "name": "newOwner",
          "type": "address"
        }
      ],
      "name": "transferOwnership",
      "outputs": [],
      "stateMutability": "nonpayable",
      "type": "function"
    }
  ],
  "bytecode": "0x608060405234801561001057600080fd5b5033600073ffffffffffffffffffffffffffffffffffffffff168173ffffffffffffffffffffffffffffffffffffffff16036100845760006040517f1e4fbdf700000000000000000000000000000000000000000000000000000000815260040161007b919061019e565b60405180910390fd5b6100938161009960201b60201c565b506101b9565b60008060009054906101000a900473ffffffffffffffffffffffffffffffffffffffff169050816000806101000a81548173ffffffffffffffffffffffffffffffffffffffff021916908373ffffffffffffffffffffffffffffffffffffffff1602179055508173ffffffffffffffffffffffffffffffffffffffff168173ffffffffffffffffffffffffffffffffffffffff167f8be0079c531659141344cd1fd0a4f28419497f9722a3daafe3b4186f6b6457e060405160405180910390a35050565b600073ffffffffffffffffffffffffffffffffffffffff82169050919050565b60006101888261015d565b9050919050565b6101988161017d565b82525050565b60006020820190506101b3600083018461018f565b92915050565b6107a6806101c86000396000f3fe608060405234801561001057600080fd5b50600436106100885760003560e01c80637dc0d1d01161005b5780637dc0d1d0146100d95780638da5cb5b146100f7578063f2fde38b14610115578063ff186b2e1461013157610088565b80633bc5de301461008d5780634ef7b42814610097578063715018a6146100b35780637adbf973146100bd575b600080fd5b61009561014f565b005b6100b160048036038101906100ac919061056d565b6101d3565b005b6100bb6102a4565b005b6100d760048036038101906100d291906105f8565b6102b8565b005b6100e1610304565b6040516100ee9190610684565b60405180910390f35b6100ff61032a565b60405161010c91906106ae565b60405180910390f35b61012f600480360381019061012a91906105f8565b610353565b005b6101396103d9565b60405161014691906106d8565b60405180910390f35b600160009054906101000a900473ffffffffffffffffffffffffffffffffffffffff1673ffffffffffffffffffffffffffffffffffffffff1663c95790786040518163ffffffff1660e01b8152600401600060405180830381600087803b1580156101b957600080fd5b505af11580156101cd573d6000803e3d6000fd5b50505050565b600160009054906101000a900473ffffffffffffffffffffffffffffffffffffffff1673ffffffffffffffffffffffffffffffffffffffff163373ffffffffffffffffffffffffffffffffffffffff1614610263576040517f08c379a000000000000000000000000000000000000000000000000000000000815260040161025a90610750565b60405180910390fd5b806002819055507f66cbca4f3c64fecf1dcb9ce094abcf7f68c3450a1d4e3a8e917dd621edb4ebe08160405161029991906106d8565b60405180910390a150565b6102ac6103df565b6102b66000610466565b565b6102c06103df565b80600160006101000a81548173ffffffffffffffffffffffffffffffffffffffff021916908373ffffffffffffffffffffffffffffffffffffffff16021790555050565b600160009054906101000a900473ffffffffffffffffffffffffffffffffffffffff1681565b60008060009054906101000a900473ffffffffffffffffffffffffffffffffffffffff16905090565b61035b6103df565b600073ffffffffffffffffffffffffffffffffffffffff168173ffffffffffffffffffffffffffffffffffffffff16036103cd5760006040517f1e4fbdf70000000000000000000000000000000000000000000000000000000081526004016103c491906106ae565b60405180910390fd5b6103d681610466565b50565b60025481565b6103e761052a565b73ffffffffffffffffffffffffffffffffffffffff1661040561032a565b73ffffffffffffffffffffffffffffffffffffffff16146104645761042861052a565b6040517f118cdaa700000000000000000000000000000000000000000000000000000000815260040161045b91906106ae565b60405180910390fd5b565b60008060009054906101000a900473ffffffffffffffffffffffffffffffffffffffff169050816000806101000a81548173ffffffffffffffffffffffffffffffffffffffff021916908373ffffffffffffffffffffffffffffffffffffffff1602179055508173ffffffffffffffffffffffffffffffffffffffff168173ffffffffffffffffffffffffffffffffffffffff167f8be0079c531659141344cd1fd0a4f28419497f9722a3daafe3b4186f6b6457e060405160405180910390a35050565b600033905090565b600080fd5b6000819050919050565b61054a81610537565b811461055557600080fd5b50565b60008135905061056781610541565b92915050565b60006020828403121561058357610582610532565b5b600061059184828501610558565b91505092915050565b600073ffffffffffffffffffffffffffffffffffffffff82169050919050565b60006105c58261059a565b9050919050565b6105d5816105ba565b81146105e057600080fd5b50565b6000813590506105f2816105cc565b92915050565b60006020828403121561060e5761060d610532565b5b600061061c848285016105e3565b91505092915050565b6000819050919050565b600061064a6106456106408461059a565b610625565b61059a565b9050919050565b600061065c8261062f565b9050919050565b600061066e82610651565b9050919050565b61067e81610663565b82525050565b60006020820190506106996000830184610675565b92915050565b6106a8816105ba565b82525050565b60006020820190506106c3600083018461069f565b92915050565b6106d281610537565b82525050565b60006020820190506106ed60008301846106c9565b92915050565b600082825260208201905092915050565b7f4e6f7420617574686f72697a6564000000000000000000000000000000000000600082015250565b600061073a600e836106f3565b915061074582610704565b602082019050919050565b600060208201905081810360008301526107698161072d565b905091905056fea26469706673582212204a75379d7e7a14b68293df70607961c388497bf6872768ee8cede40603bcd2e464736f6c634300081b0033",
  "linkReferences": {},
  "deployedLinkReferences": {}
}