{
  "_format": "hh-sol-artifact-1",
  "contractName": "Oracle",
  "sourceName": "contracts/Oracle.sol",
  "abi": [
    {
      "anonymous": false,
      "inputs": [
        {
          "indexed": false,
          "internalType": "address",
          "name": "from",
          "type": "address"
        }
      ],
      "name": "NewRequest",
      "type": "event"
    },
    {
      "inputs": [],
      "name": "createRequest",
      "outputs": [],
      "stateMutability": "nonpayable",
      "type": "function"
    },
    {
      "inputs": [
        {
          "internalType": "address",
          "name": "_consumer",
          "type": "address"
        },
        {
          "internalType": "uint256",
          "name": "_price",
          "type": "uint256"
        }
      ],
      "name": "setEthPrice",
      "outputs": [],
      "stateMutability": "nonpayable",
      "type": "function"
    }
  ],
  "bytecode": "0x6080604052348015600f57600080fd5b506106d58061001f6000396000f3fe608060405234801561001057600080fd5b50600436106100365760003560e01c8063c23849881461003b578063c957907814610057575b600080fd5b6100556004803603810190610050919061042e565b610061565b005b61005f610279565b005b6000808373ffffffffffffffffffffffffffffffffffffffff1673ffffffffffffffffffffffffffffffffffffffff16815260200190815260200160002060009054906101000a900460ff166100ec576040517f08c379a00000000000000000000000000000000000000000000000000000000081526004016100e3906104cb565b60405180910390fd5b60008273ffffffffffffffffffffffffffffffffffffffff168260405160240161011691906104fa565b6040516020818303038152906040527f4ef7b428000000000000000000000000000000000000000000000000000000007bffffffffffffffffffffffffffffffffffffffffffffffffffffffff19166020820180517bffffffffffffffffffffffffffffffffffffffffffffffffffffffff83818316178352505050506040516101a09190610586565b6000604051808303816000865af19150503d80600081146101dd576040519150601f19603f3d011682016040523d82523d6000602084013e6101e2565b606091505b5050905080610226576040517f08c379a000000000000000000000000000000000000000000000000000000000815260040161021d906105e9565b60405180910390fd5b6000808473ffffffffffffffffffffffffffffffffffffffff1673ffffffffffffffffffffffffffffffffffffffff16815260200190815260200160002060006101000a81549060ff0219169055505050565b6000803373ffffffffffffffffffffffffffffffffffffffff1673ffffffffffffffffffffffffffffffffffffffff16815260200190815260200160002060009054906101000a900460ff1615610305576040517f08c379a00000000000000000000000000000000000000000000000000000000081526004016102fc90610655565b60405180910390fd5b60016000803373ffffffffffffffffffffffffffffffffffffffff1673ffffffffffffffffffffffffffffffffffffffff16815260200190815260200160002060006101000a81548160ff0219169083151502179055507f2749295aa7ffdbd4d16719dc03d592cd081eebd9bb790ceedce201a40675fc033360405161038b9190610684565b60405180910390a1565b600080fd5b600073ffffffffffffffffffffffffffffffffffffffff82169050919050565b60006103c58261039a565b9050919050565b6103d5816103ba565b81146103e057600080fd5b50565b6000813590506103f2816103cc565b92915050565b6000819050919050565b61040b816103f8565b811461041657600080fd5b50565b60008135905061042881610402565b92915050565b6000806040838503121561044557610444610395565b5b6000610453858286016103e3565b925050602061046485828601610419565b9150509250929050565b600082825260208201905092915050565b7f596f7520617265206e6f7420696e207265717565737473206c69737400000000600082015250565b60006104b5601c8361046e565b91506104c08261047f565b602082019050919050565b600060208201905081810360008301526104e4816104a8565b9050919050565b6104f4816103f8565b82525050565b600060208201905061050f60008301846104eb565b92915050565b600081519050919050565b600081905092915050565b60005b8381101561054957808201518184015260208101905061052e565b60008484015250505050565b600061056082610515565b61056a8185610520565b935061057a81856020860161052b565b80840191505092915050565b60006105928284610555565b915081905092915050565b7f4572726f722073657474696e6720657468507269636500000000000000000000600082015250565b60006105d360168361046e565b91506105de8261059d565b602082019050919050565b60006020820190508181036000830152610602816105c6565b9050919050565b7f596f7572207265717565737420616c72656164792070656e64696e6700000000600082015250565b600061063f601c8361046e565b915061064a82610609565b602082019050919050565b6000602082019050818103600083015261066e81610632565b9050919050565b61067e816103ba565b82525050565b60006020820190506106996000830184610675565b9291505056fea2646970667358221220fa48726e34a288f48b7493546c77d6209a51c288756565d9e402ea66f1f254ec64736f6c634300081b0033",
  "linkReferences": {},
  "deployedLinkReferences": {}
}